:10000000A304020A7E007A007B007C007D00A40528
:100010007000710072007300740075007600640057
:10002000A304760AA304370AA304650BA304EC0A0D
:10003000A304260AA305D20BA305DD0BA305C90B58
:10004C00A40430001002A4052600810541052105F9
:10005C00A4041002A4052600070225004105210571
:10006C000008A404350015073E0AA4040605400A3E
:10007C00A40406040602A4053500A40415024307D3
:10008C004E0AA4051502CF0E2E006F000E02540A64
:10009C00300C2E006F000E02A4051501A4043300D1
:1000AC000F0234001302260015022F00000C1F064D
:1000BC00010C8F01430600081F0415061F05A4043C
:1000CC0015022700080CA3041809A3047E0CA40431
:1000DC003200F80C3100F102710AF202710A0008C8
:1000EC00A3041C09A304000CA3041E09A304A40468
:1000FC0010023A00A80C9A000306880A150C9A0004
:10010C000306C80A5E0C3A001A022700000CA3046E
:10011C001809A304C80AA3041A09A3040702A40417
:10012C003D00A90C9D000307AA0A010CA3041409A5
:10013C00A304140CA4043700790C3600F602A40AAC
:10014C00F702A40A0000C80AA4041D022F00000C28
:10015C001F06010C2800300CC80124000002A40466
:10016C0036000F0296000306BD0A010CBE0A000CF5
:10017C00A3041209A304000CA3041409A304A304EC
:10018C001609A304A40478007900FE0CDA01A40576
:10019C003100020CA404DA01A4053000A4046606A4
:1001AC00910A010C2E006F000E02F8010306B90231
:1001BC000F02F901090C9900C50C430698000307BE
:1001CC00CB0A010CA3041409A304C80AA405160243
:1001DC004306F30A010CB600F50AA4045E04A40459
:1001EC0006042606110B1F07FE0AA4040605000BC5
:1001FC00A4040604050CA405920003060A0B010CCA
:10020C002F000F02F2010008A4043E0600081D0294
:10021C003C003E0500081F07160BA4040605180B2E
:10022C00A40406043E07600B1D022F00010C3100D4
:10023C0003042F03F1021E0B1C02320003041203F1
:10024C00FF0F33009302CF013B00FB06330B1B0265
:10025C0034007500F406F500410B1B022E006F00F4
:10026C00EE06EF006E026F02AE024306AF020E0204
:10027C0034000F02350015022F0014022E000F025D
:10028C00800F2800800C880043074E0B050C8E0055
:10029C000306560B140CA4053600A4045E05600B73
:1002AC00A4041C02DB013A001A022700000CA30470
:1002BC001809A304A4043E04A40572000008A404B5
:1002CC003000D00043076D0BA4041E056F0BA40473
:1002DC001E04010C2F000F02A405F401050C940060
:1002EC00030700087400C80BA40446050008A40406
:1002FC007100B1023E075E06840B710011022F00E3
:10030C000F0303074604030646050008A404720005
:10031C00B2021F073E06940B5E07720012022F00FA
:10032C000F0303074604030646050008A4047300E4
:10033C00B3023E075E06A30B730013022F000F03DC
:10034C0003074604030646050008A4047400B4021F
:10035C001E075E06B20B740014022F000F03030776
:10036C004604030646050008A4045E07C00BA4045B
:10037C0046050008A40446040008A4044604A40589
:10038C0073000008010C2F000F02F3011302010F80
:10039C0043067A0B030F43067D0B010F43067D0BBF
:1003AC00070F43068C0B010F43069C0B030F4306F0
:1003BC009C0B010F43069C0B0F0F43069C0B010F6C
:1003CC0043069C0B030F4306AB0B010F4306AB0B11
:1003DC00070F4306AB0B010F4306AB0B030F430692
:1003EC00BA0B010F4306BA0B1F0F4306C30BFF0BCF
:0403FC0000080008ED
:1007920027000702A405260001050502A404300073
:1007A2000008A40461006607DA0BA90C81000307A4
:1007B200D40B010227000008080CA3041E09A3059C
:1007C200A404100232001F0412061F05A4041F060F
:1007D200ED0B73007400F10B300C3300000C34008D
:1007E200130226001F07F80BA4040605FA0BA40443
:0C07F20006040A0C0600830C020000083C
:021FFE00CAFF18
:00000001FF
